:08000000803102288731F72F3F
:100CA4003234F830F0007008210099048E118B134F
:100CB40008003D0091018030920093019401960157
:100CC40097019801990101309A0001309B0001308D
:100CD4009C009D0108309E009F01A201A1010130EA
:100CE400A4006A30A3000230A6003A30A500A9018E
:100CF400AA01AD01AB01AC010830AE00AF01A00107
:100D04000830950080309100EE30F000700821002A
:100D140094051408080086315326863186315B26F3
:100D240086316430FA007A08F00000308631D32628
:100D340086310B30FC002630FB006630FA00FA0BDB
:100D4400A12EFB0BA12EFC0BA12E00326430FA0065
:100D54007A08F00001308631D32686310B30FC004E
:100D64002630FB006630FA00FA0BB62EFB0BB62ECB
:100D7400FC0BB62E00326430FA007A08F000023020
:100D84008631D32686310B30FC002630FB006630DA
:100D9400FA00FA0BCB2EFB0BCB2EFC0BCB2E003226
:100DA400932EF9007908031D362FF301F40174081A
:100DB400803AF10080307102031DE22E7008730244
:100DC400031808003D009216ED30F10000320000D7
:100DD400F10BE82E00003D0092121A30F200F830B8
:100DE400F100F10BF32EF20BF32E00003D009216EE
:100DF4000430F200B430F100F10BFE2EF20BFE2EA3
:100E040000003D0092121930F2001B30F100F10B8A
:100E1400092FF20B092F00323D0092160430F20024
:100E2400B430F100F10B142FF20B142F00003D002D
:100E340092121930F2001B30F100F10B1F2FF20B4C
:100E44001F2F00323D0092161C30F200D130F10009
:100E5400F10B2A2FF20B2A2F00323D00921201309F
:100E6400F3070030F43DD92E7903031D982FF501C3
:100E7400F6017608803AF10080307102031D442F98
:100E840070087502031808003D009216ED30F10059
:100E940000320000F10B4A2F00003D0092121A307C
:100EA400F200F830F100F10B552FF20B552F000032
:100EB4003D0092160630F2008D30F100F10B602FE8
:100EC400F20B602F00323D0092121730F2004230D4
:100ED400F100F10B6B2FF20B6B2F00003D0092160B
:100EE4000630F2008D30F100F10B762FF20B762FE5
:100EF40000323D0092121730F2004230F100F10B43
:100F0400812FF20B812F00003D0092161C30F2005D
:100F1400D130F100F10B8C2FF20B8C2F00323D00FD
:100F240092120130F5070030F63D3B2FF701F8012E
:100F34007808803AF10080307102031DA32F7008F5
:100F44007702031808003D009216ED30F1000032DC
:100F54000000F10BA92F00003D0092121A30F2009C
:100F6400F830F100F10BB42FF20BB42F00003D0068
:100F740092160830F2006930F100F10BBF2FF20B2A
:100F8400BF2F00323D0092121530F2006630F1009E
:100F9400F10BCA2FF20BCA2F00003D009216083045
:100FA400F2006930F100F10BD52FF20BD52F00328E
:100FB4003D0092121530F2006630F100F10BE02F83
:100FC400F20BE02F00003D0092161C30F200D130ED
:100FD400F100F10BEB2FF20BEB2F00323D009212DC
:100FE4000130F7070030F83D9A2FFD01A001A1015F
:100FF40086315226A200200086318D2E4434693475
:10100400733470346C34613479346534643420342A
:1010140069346E34643469347634693464347534D0
:1010240061346C342034733477346F347234643400
:1010340020347334773469346E34673420346C3438
:1010440069346734683474342034733468346F34E6
:1010540077342E340A340D34003444346934733410
:1010640070346C34613479346534643420344F34EE
:101074006D34653467346134203462346C346134E3
:101084006434653420347334773469346E346734AB
:1010940020346C34693467346834743420347334E1
:1010A40068346F3477342E340A340D3400345034B9
:1010B4006C34613479346534643420344F346D34A1
:1010C400653467346134203462346C34613464349C
:1010D400653420347334773469346E34673420349F
:1010E40073346F3475346E3464342E340A340D34EE
:1010F400003450346C3461347934653464342034CD
:101104004234653474346134203462346C34613470
:101114006434653420347334773469346E3467341A
:10112400203473346F3475346E3464342E340A349A
:101134000D34003449346E346934743469346134A0
:101144006C3469347A3465346434203461346334FF
:10115400633465346C34653472346F346D3465349F
:101164007434653472342E340A340D340034493402
:101174006E3469347434693461346C3469347A3467
:101184006534643420344C344534443473342E345C
:101194000A340D34003449346E3469347434693497
:1011A40061346C3469347A346534643420344934B9
:0C11B400533452342E340A340D3400340D
:020000040001F9
:04000E00E4F9FFDE34
:00000001FF
