:040000006EEF4CF063
:10000800F2A407D0010E5B6E0B0ED76EDC0ED66E17
:04001800F29411004D
:10001C0074CA6FFF016A0150000A05E1000E6DB051
:0C002C00010E016EF8D76FCF00F012003B
:1000380074CAC9FF016A0150000A05E1000EC7B081
:0C004800010E016EF8D7C9CF00F01200C5
:10005400F250026EF29E0500FF6A0150FE6E0050DF
:08006400FD6E02BEF28E1200D7
:10006C0073CAC9FF016A0150000A05E1000EC7B04E
:0C007C00010E016EF8D7C9CF01F0120090
:1000880073CA6FFF016A0150000A05E1000E6DB0E6
:0C009800010E016EF8D76FCF01F01200CE
:0C00A400908C73CA88FF90949084120026
:0C00B000909C73CA88FF9094908412000A
:0400BC008C90120012
:1000C000400E0A016A25006E29C3E1FF2AC3E2FF40
:1000D00000C0E6FF27C300F028C301F0BBDF29C33F
:1000E000E1FF2AC3E2FF6ECAE6FF27C300F028C380
:1000F00001F0B0DF29C3E1FF2AC3E2FF6DCAE6FFCA
:1001000027C300F028C301F0A5DF29C3E1FF2AC3FC
:10011000E2FF6CCAE6FF27C300F028C301F09ADFB4
:1001200029C3E1FF2AC3E2FF6BCAE6FF27C300F041
:1001300028C301F08FDF29C3E1FF2AC3E2FF6FCAA2
:10014000E6FF27C300F028C301F084DF0A01716BCA
:10015000726B29C3E1FF2AC3E2FFFF0EE66E27C3DD
:1001600000F028C301F076DF00C070FA0A01714B7D
:10017000722B800E0014016E0150000A07E0000E81
:10018000725D02E1640E715D01E2E3D770CA00F0B6
:0201900012005B
:10019200908C6BCA88FF909490846ACA88FF90946E
:0401A2009084120033
:1001A6008C8029C3E1FF2AC3E2FFFF0EE66E27C358
:0A01B60000F028C301F04BDF120037
:1001C000BCC0E1FFBDC0E2FF020EE66EBAC000F0A7
:1001D000BBC001F03FDFB5C0E1FFB6C0E2FF5DCAC2
:1001E000E6FFB3C000F0B4C001F034DFBCC0E1FFF3
:1001F000BDC0E2FF030EE66EBAC000F0BBC001F066
:1002000029DFB5C0E1FFB6C0E2FF5CCAE6FFB3C0BC
:1002100000F0B4C001F01EDFBCC0E1FFBDC0E2FFD2
:10022000060EE66EBAC000F0BBC001F013DFB5C029
:10023000E1FFB6C0E2FF5FCAE6FFB3C000F0B4C0A2
:1002400001F008DFBCC0E1FFBDC0E2FF070EE66EB3
:10025000BAC000F0BBC001F0FDDEB5C0E1FFB6C022
:10026000E2FF5ECAE6FFB3C000F0B4C001F0F2DE08
:10027000BCC0E1FFBDC0E2FF220EE66EBAC000F0D6
:08028000BBC001F0E7DE120033
:1002880019DF000E000A02E1040E241809E15CCA15
:1002980064FA5DCA65FA5ECA66FA5FCA67FA14D07C
:1002A800090E006E5CCA64FA5DCA65FA5ECA66FA2F
:1002B8005FCA67FA005008E00A016437649165373D
:1002C80066376737FF0FF7D70A01110E6A6F64CADE
:1002D8006BFA65CA6CFA66CA6DFA67CA6EFAFF0EDF
:1002E8006F6FEADE005204E05ADF010E006E4BD059
:1002F80029C3E1FF2AC3E2FFFF0EE66E27C300F021
:1003080028C301F0A3DE0050FE0A01E0F1D70A017C
:10031800626B636B020E635D02E1000E625D1BE2BD
:1003280062516025686F63516121696F29C3E1FFDC
:100338002AC3E2FFFF0EE66E27C300F028C301F0D0
:1003480085DE68CAE1FF69CAE2FF00C0E6FF0A016C
:10035800624B632BDFD729C3E1FF2AC3E2FFFF0EFD
:10036800E66E27C300F028C301F070DE29C3E1FF61
:100378002AC3E2FFFF0EE66E27C300F028C301F090
:0803880065DE0DDF006A1200C2
:100390000B1E0A1E091E081E082AD8B4092AD8B442
:0803A0000A2AD8B40B2A12004E
:1003A8000450085E0550D8A0053C095E0650D8A048
:1003B800063C0A5E0750D8A0073C0B5E0336070EC2
:1003C8000C6E0334083609360A360B36045003A07F
:1003D8000ED0085E0550D8A0053C095E0650D8A08E
:1003E800063C0A5E0750D8A0073C0B5E0DD00826D5
:1003F8000550D8B0053C09260650D8B0063C0A2658
:100408000750D8B0073C0B2603360C2EDAD7023437
:10041800083609360A360B36045003A00ED0085E9B
:100428000550D8A0053C095E0650D8A0063C0A5ED7
:100438000750D8A0073C0B5E0DD008260550D8B051
:10044800053C09260650D8B0063C0A260750D8B005
:10045800073C0B260236070E0C6E023408360936A6
:100468000A360B36045002A00ED0085E0550D8A0FC
:10047800053C095E0650D8A0063C0A5E0750D8A085
:10048800073C0B5E0DD008260550D8B0053C092660
:100498000650D8B0063C0A260750D8B0073C0B26B1
:1004A80002360C2EDAD70134083609360A360B36EE
:1004B800045002A00ED0085E0550D8A0053C095E85
:1004C8000650D8A0063C0A5E0750D8A0073C0B5E31
:1004D8000DD008260550D8B0053C09260650D8B0DE
:1004E800063C0A260750D8B0073C0B260136070EF3
:1004F8000C6E0134083609360A360B36045001A052
:100508000ED0085E0550D8A0053C095E0650D8A05C
:10051800063C0A5E0750D8A0073C0B5E0DD00826A3
:100528000550D8B0053C09260650D8B0063C0A2626
:100538000750D8B0073C0B2601360C2EDAD700340A
:10054800083609360A360B36045001A00ED0085E6C
:100558000550D8A0053C095E0650D8A0063C0A5EA6
:100568000750D8A0073C0B5E0DD008260550D8B020
:10057800053C09260650D8B0063C0A260750D8B0D4
:10058800073C0B260036070E0C6E00340836093679
:100598000A360B36045000A00ED0085E0550D8A0CD
:1005A800053C095E0650D8A0063C0A5E0750D8A054
:1005B800073C0B5E0DD008260550D8B0053C09262F
:1005C8000650D8B0063C0A260750D8B0073C0B2680
:1005D80000360C2EDAD700B00ED00450082605508D
:1005E800D8B0053C09260650D8B0063C0A26075064
:0805F800D8B0073C0B261200ED
:0E060000570E0D6E0D2EFED7000000001200EA
:10060E00800E0A015519006E800E005C02E1000E8C
:10061E00545D0BE30001CA510A01555D04E100016E
:10062E00C9510A01545D01E201D02DD0800E571937
:10063E00006E800E005C02E1000E565D0BE30001C1
:10064E00C8510A01575D04E10001C7510A01565D08
:10065E0001E201D018D08F9654CA5CFA55CA5DFAE1
:10066E0056CA5EFA57CA5FFAA4DDC5C0E1FFC6C01E
:10067E00E2FF58CAE6FF59CAE6FFC3C000F0C4C085
:08068E0001F0E1DC8F8612008F
:10069600C30EC21654CA00F0003600900036009011
:1006A6000050C212AADFC282C2A201D0FDD7C4CFB7
:0E06B60001F0006AC3500012000E0112120083
:1006C4000001A95100080BE1A851000808E1A75155
:1006D4000A01555D04E10001A6510A01545D02E3DB
:1006E400006A5AD00A0155CA56FA576B586B596BAF
:1006F400000E586F596F0001AA510A015625016E68
:100704000001AB510A015721026E0001AC510A01EC
:100714005821036E0001AD510A015921046E01C034
:1007240056FA02C057FA03C058FA04C059FAFF0E29
:10073400541500018E6F55CA8FF0000E8F178E3737
:100744008E918F3705016151041808E16051031837
:1007540005E15F51021802E15E5101181BE056CA1F
:100764005CFA57CA5DFA58CA5EFA59CA5FFA560E5D
:100774000A01606F030E616F85DD0050010A02E11A
:10078400006A0AD056CA5EF557CA5FF558CA60F5C2
:0A07940059CA61F5010E006E120053
:10079E000B6A0A6A096A086A0E6A0334083604503C
:1007AE00085E0550D8A0053C095E0650D8A0063C50
:1007BE000A5E0750D8A0073C0B5EE86AD8A0010E6F
:1007CE000E5E0336070E0C6E0334083609360A36F3
:1007DE000B360E36045003A012D0085E0550D8A07A
:1007EE00053C095E0650D8A0063C0A5E0750D8A00C
:1007FE00073C0B5EE86AD8A0010E0E5E11D00826EB
:10080E000550D8B0053C09260650D8B0063C0A263D
:10081E000750D8B0073C0B26E86AD8B0010E0E265A
:10082E0003360C2ED1D70234083609360A360B366B
:10083E000E36045003A012D0085E0550D8A0053C19
:10084E00095E0650D8A0063C0A5E0750D8A0073CA9
:10085E000B5EE86AD8A0010E0E5E11D00826055078
:10086E00D8B0053C09260650D8B0063C0A260750DB
:10087E00D8B0073C0B26E86AD8B0010E0E26023619
:10088E00070E0C6E0234083609360A360B360E3653
:10089E00045002A012D0085E0550D8A0053C095E97
:1008AE000650D8A0063C0A5E0750D8A0073C0B5E47
:1008BE00E86AD8A0010E0E5E11D008260550D8B0F9
:1008CE00053C09260650D8B0063C0A260750D8B07B
:1008DE00073C0B26E86AD8B0010E0E2602360C2E07
:1008EE00D1D70134083609360A360B360E36045087
:1008FE0002A012D0085E0550D8A0053C095E065035
:10090E00D8A0063C0A5E0750D8A0073C0B5EE86AEA
:10091E00D8A0010E0E5E11D008260550D8B0053CA9
:10092E0009260650D8B0063C0A260750D8B0073C18
:10093E000B26E86AD8B0010E0E260136070E0C6E95
:10094E000134083609360A360B360E36045001A02D
:10095E0012D0085E0550D8A0053C095E0650D8A0FE
:10096E00063C0A5E0750D8A0073C0B5EE86AD8A08A
:10097E00010E0E5E11D008260550D8B0053C092692
:10098E000650D8B0063C0A260750D8B0073C0B26B6
:10099E00E86AD8B0010E0E2601360C2ED1D70034DF
:1009AE00083609360A360B360E36045001A012D020
:1009BE00085E0550D8A0053C095E0650D8A0063C3E
:1009CE000A5E0750D8A0073C0B5EE86AD8A0010E5D
:1009DE000E5E11D008260550D8B0053C09260650EB
:1009EE00D8B0063C0A260750D8B0073C0B26E86A5A
:1009FE00D8B0010E0E260036070E0C6E00340836E7
:100A0E0009360A360B360E36045000A012D0085E98
:100A1E000550D8A0053C095E0650D8A0063C0A5EDB
:100A2E000750D8A0073C0B5EE86AD8A0010E0E5EF8
:100A3E0011D008260550D8B0053C09260650D8B06E
:100A4E00063C0A260750D8B0073C0B26E86AD8B0F9
:100A5E00010E0E2600360C2ED1D700B00ED004504B
:100A6E0008260550D8B0053C09260650D8B0063CDD
:0C0A7E000A260750D8B0073C0B261200D7
:100A8A000450000A12E10550000A0FE10650000A5C
:100A9A000CE10750000A09E1FF0E006EFF0E016E1D
:100AAA00FF0E026E7F0E036E98D00C6A07BE0C2AE8
:100ABA000D6A0B6A0A6A096A086A03500210011071
:100ACA000010D8B484D0035007180E6E0EBE0D1E47
:100ADA0007AE0BD0041E051E061E071E042AD8B434
:100AEA00052AD8B4062AD8B4072A03AE0BD0001EAA
:100AFA00011E021E031E002AD8B4012AD8B4022AF3
:100B0A00D8B4032A035007100E6E0EBE1CD047DC61
:100B1A000CBE36D00DAE5BD0001E011E021E031E97
:100B2A00002AD8B4012AD8B4022AD8B4032A081E43
:100B3A00091E0A1E0B1E082AD8B4092AD8B40A2A82
:100B4A00D8B40B2A44D007AE15D003BE0DD003503B
:100B5A000B6E02500A6E0150096E0050086E036A4D
:100B6A00026A016A006AD6D7036A026A016A006ADF
:100B7A00002A000C031E021E011E001E0C8EC7D77F
:100B8A00082AD8B4092AD8B40A2AD8B40B2A045095
:100B9A00085CD8A4BFD70550095CD8A4BBD70650B7
:100BAA000A5CD8A4B7D707500B5CD8A4B3D70B6A92
:100BBA000A6A096A086A002AD8B4012AD8B4022A39
:100BCA00D8B4032A03AEA6D70E6A0E88FF0C0E6AA3
:0C0BDA000CA002D0C8EC01F0000F1200CB
:100BE6000B0E006E54CA02F055CA03F0005005E021
:100BF60003320232039EFF0FFAD7030E016E02C0C4
:100C060000F0015004E000360090FF0FFBD756CAF3
:100C1600E1FF57CAE2FF00C0E6FF050E006E54CAA8
:100C260002F055CA03F0005005E003320232039E7B
:100C3600FF0FFAD702C000F0003600900036009091
:100C460058CAE1FF59CAE2FF00C0E6FF030E016E73
:100C560054CA00F0015004E000360090FF0FFBD7A5
:0E0C66005ACAE1FF5BCAE2FF00C0E6FF1200BF
:100C7400220E0C6E086A096A0A6A0B6A0C06D8B45A
:100C84001FD0D8900B320A320932083203320232B2
:100C940001320032D8A0F2D70C06D8B409D00450DF
:100CA40008260550092206500A2207500B22EAD7CB
:100CB400045008260550092206500A2207500B2228
:020CC40012001C
:100CC60054CA01F00132019E0132019E0132019E99
:100CD60001C054FA0B0E006E01C004F0000E056E42
:100CE600005005E0043604900536FF0FFAD755CAC2
:100CF60003F00332039E0332039E03C055FA050E2A
:100D0600026E03C000F0000E016E025005E00036D0
:100D160000900136FF0FFAD700500410026E0550FE
:100D26000110036E56CA00F00032009E0032009E8B
:100D36000032009E00C056FA000E016E02500012EC
:060D46000350011212002F
:100D4C00000E0A01491902E1000E481905E144CAD6
:100D5C0000F045CA01F097D049514B1902E14A51B4
:100D6C00481905E146CA00F047CA01F08CD044CAC4
:100D7C0054FA45CA55FA4C0E566F0A0E576F4F0E61
:100D8C00586F0A0E596F520E5A6F0A0E5B6F25DFA1
:100D9C0046CA54FA47CA55FA4D0E0A01566F0A0E46
:100DAC00576F500E586F0A0E596F530E5A6F0A0E2A
:100DBC005B6F13DF48CA04F049CA05F0000E066EDB
:100DCC00076E4DCA00F0000E016E0A014C51005E18
:100DDC00000E015A000E01BEFF0E026E036E44DFC0
:100DEC004ACA04F04BCA05F0000E066E076E47DEC9
:100DFC0000500A014C254E6F48CA04F049CA05F050
:100E0C00000E066E076E50CA00F0000E016E4F51B8
:100E1C00005E000E015A000E01BEFF0E026E036E44
:100E2C0023DF4ACA04F04BCA05F0000E066E076EAB
:100E3C0026DE00500A014F25516F48CA04F049CAFA
:100E4C0005F0000E066E076E53CA00F0000E016E20
:100E5C005251005E000E015A000E01BEFF0E026ED2
:100E6C00036E02DF4ACA04F04BCA05F0000E066E90
:100E7C00076E05DE00500A015225566F4ECA54FA11
:080E8C0051CA55FA1ADF1200E9
:100E940044CA83F045CA84F046CA85F0020E0A01AA
:100EA4004425F66E000E4521F76E000E4621F86EBD
:100EB4000900F5CF04F0030E4425F66E000E45211B
:100EC400F76E000E4621F86E0900F5CF03F003C05B
:100ED40001F0006A045000240001D46F000E0120C8
:100EE400D56F040E0A014425F66E000E4521F76EF7
:100EF400000E4621F86E0900F5CF04F0050E4425D6
:100F0400F66E000E4521F76E000E4621F86E0900BC
:100F1400F5CF03F003C001F0006A0450002400017F
:100F2400D26F000E0120D36F060E0A014425F66E1F
:100F3400000E4521F76E000E4621F86E0900F5CF2C
:100F4400DAF0000E0001DB6F47CA61F048CA62F0B4
:0C0F540049CACDF0010E256EB96B1200E9
:100F60000B6A0A6A096A00500402F4CF09F0F3CF51
:100F700008F001500502F4CF0BF0F3CF0AF0005057
:100F80000502F3500926F4500A22E86A0B220150A8
:100F90000402F3500926F4500A22E86A0B2208C022
:100FA00000F009C001F00AC002F00BC003F012000B
:0E0FB000C70E0D6E0D2EFED7000000001200C1
:100FBE00DC0E0A01506F000E516F000E006E49518B
:100FCE00005C02E14851000844E2D8C0E1FFD9C0FC
:100FDE00E2FF44CAE6FF45CAE6FF46CAE6FF47CA35
:100FEE00E6FF48CAE6FF49CAE6FF4C0EE66E0A0E59
:100FFE00E66ED6C000F0D7C001F02AEC00F000C0BB
:10100E004EFA01C04FFA0A014A6B4B6B4D514B5DC4
:10101E0002E14C514A5D11E24ECAE9FF4FCAEAFFA6
:10102E0050CAE1FF51CAE2FFEECFE6FF504B512B03
:10103E004E4B4F2B4A4B4B2BE9D74C51485F4D51E2
:10104E00495B4C5144274D514523000E46234723FF
:04105E00B4D71200F1
:10106200800E0A014719006E800E4519005C02E1EC
:101072004451465D0CE244CA4AFA45CA4BFA46CA92
:1010820044FA47CA45FA4ACA46FA4BCA47FA800E98
:101092004519006E800E005C02E1000E445D03E221
:1010A200446B456B0BD00001CA510A01455D04E156
:1010B2000001C9510A01445D01E395D0800E471930
:1010C200006E800E005C02E1000E465D01E28BD0F4
:1010D2000001CA510A01475D04E10001C9510A0138
:1010E200465D0AE3010E0001C95D0A01466F000E6A
:1010F2000001CA590A01476F010E4C6F4C515C5CEA
:10110200D8A071D04CCA4DFA000E4E6F010E4D158B
:10111200016E4ECA02F0000E0216000E021802E123
:10112200000E011806E14D5100084D6F4E51000EA0
:101132004E574DCA00F04ECA01F001320032019EF4
:1011420001BC018E00C04DFA01C04EFA0050482584
:10115200026E01504921036E800E0318006E800E4C
:10116200005C02E1000E025C0EE34D514825016E67
:101172004E514921026E0001C851025C02E1C75181
:10118200015C01E201D02CD08F9644CA5CFA45CAB8
:101192005DFA0A014D5148255E6F4E5149215F6F3C
:1011A200E0EC00F044CA4AFA45CA4BFA0A014B5134
:1011B200475D02E14A51465D12E3C5C0E1FFC6C088
:1011C200E2FF5DC0E6FF5EC0E6FFC3C000F0C4C040
:1011D20001F02AEC00F00A014A4B4B2BE7D78F862D
:0811E2000A014C2B8BD712000F
:1011EA00800E0A014719006E800E4519005C02E163
:1011FA004451465D0CE244CA4AFA45CA4BFA46CA09
:10120A0044FA47CA45FA4ACA46FA4BCA47FA800E0E
:10121A004519006E800E005C02E1000E445D03E297
:10122A00446B456B0BD00001C8510A01455D04E1CE
:10123A000001C7510A01445D01E387D0800E4719B6
:10124A00006E800E005C02E1000E465D01E27DD078
:10125A000001C8510A01475D04E10001C7510A01B2
:10126A00465D0AE3010E0001C75D0A01466F000EE2
:10127A000001C8590A01476F010E4C6F4C515C5C62
:10128A0064E34CCA4DFA000E4E6F010E4D15016E05
:10129A004ECA02F0000E0216000E021802E1000EFB
:1012AA00011806E14D5100084D6F4E51000E4E5780
:1012BA004DCA00F04ECA01F001320032019E01BC53
:1012CA00018E00C04DFA01C04EFA00504825026E48
:1012DA0001504921036E800E0318006E800E005CD7
:1012EA0002E1000E025C0EE34D514825016E4E519B
:1012FA004921026E0001CA51025C02E1C951015C36
:10130A0001E201D01FD044CA4AFA45CA4BFA0A017F
:10131A004B51475D02E14A51465D14E34D51482560
:10132A00546F4E514921556F4ACA56FA4BCA57FA59
:10133A005DC058FA5EC059FA07EC03F00A014A4B3D
:0C134A004B2BE5D70A014C2B99D7120061
:1013560098C004F099C005F09AC006F09BC007F04B
:1013660044CA00F045CA01F0000E0A0145BFFF0E4F
:10137600026E036ECFEC03F000C048FA01C049FAD2
:1013860002C04AFA03C04BFA86C004F087C005F0D3
:1013960088C006F089C007F0CFEC03F000C046FA1B
:1013A60001C047FA5CC550FA5DC551FA800E006E61
:1013B600800E4719005C02E14651000829E2010E41
:1013C600465F000E475B010E5025546F000E5121FB
:1013D600556F62EC03F0560E00018E25E96E030E82
:1013E6008F21EA6EEECF01F0EECF02F001C050FA87
:1013F60002C051FAFF0E025C02E1F80E015C02E344
:10140600006AAAD0010E0A01505F000E515BCED7CA
:1014160050CA00F051CA01F0000E026E036E86C07B
:1014260004F087C005F088C006F089C007F01FDC0D
:1014360000C04CFA01C04DFA02C04EFA03C04FFA82
:1014460086C004F087C005F088C006F089C007F0A2
:1014560048CA00F049CA01F04ACA02F04BCA03F072
:10146600CFEC03F008C000F009C001F00AC002F09A
:101476000BC003F000504C2701504D2302504E2361
:1014860003504F2300018A510A014C2700018B515A
:101496000A014D2300018C510A014E2300018D5192
:1014A6000A014F2398C004F099C005F09AC006F0CF
:1014B6009BC007F044CA00F045CA01F0000E45BFC4
:1014C600FF0E026E036ECFEC03F008C000F009C0F9
:1014D60001F00AC002F00BC003F0050E046E00C056
:1014E60056F501C057F5045006E0050156375691EA
:1014F6005737FF0FF9D7050161510A014F190EE160
:10150600050160510A014E1909E105015F510A0101
:101516004D1904E105015E510A014C191BE04CCA44
:101526005CFA4DCA5DFA4ECA5EFA4FCA5FFA560EAB
:10153600606F030E616F44EC01F00050010A02E196
:10154600006A0AD04CCA5EF54DCA5FF54ECA60F510
:0A1556004FCA61F5010E006E12008D
:1015600044CA5DF045CA5EF00A014651000A03E133
:0C157000010E5C6E02D046CA5CF0120056
:10157C000801396B3A6B3B6B3C6B0001D551080190
:10158C00255D04E10001D4510801245D01E207D27C
:10159C0025510001D35D04E1080124510001D25D05
:1015AC0001E2FDD1D4510801245D036E0001D55137
:1015BC0008012559046E03C000F004C001F0003688
:1015CC0000900136003600900136080E0001CE2541
:1015DC000A01446F000E0001CF210A01456F000E75
:1015EC000001D0210A01466F000E0001D1210A0131
:1015FC00476F0050442701504523000E46234723D4
:10160C00040E486F000E496FD4DCDC0E0801376FF6
:10161C00000E386F37C8E9FF38C8EAFFEECF08F084
:10162C0008C039F8010E3725E96E000E3821EA6E34
:10163C00EECF04F0000E056E066E076E020E372517
:10164C00E96E000E3821EA6EEECF03F003C001F014
:10165C00006A000E026E036E005004260150052233
:10166C000250062203500722030E3725E96E000EA6
:10167C003821EA6EEECF03F0006A016A04500026AE
:10168C00055001220650022207500322005000018F
:10169C00CE2508012B6F01500001CF2108012C6FC2
:1016AC0002500001D02108012D6F03500001D121FF
:1016BC0008012E6F08C000F00032009E0032009E20
:1016CC000032009E000E016EDAC004F0DBC005F0A3
:1016DC0041DC00C031F801C032F8070E3915006E3C
:1016EC0008E00001DA51080131270001DB51080143
:1016FC00322331C835F832C836F8D8C0E1FFD9C02A
:10170C00E2FF2BC8E6FF2CC8E6FF2DC8E6FF2EC86B
:10171C00E6FF31C8E6FF32C8E6FF2F0EE66E080E74
:10172C00E66ED6C000F0D7C001F02AEC00F000C085
:10173C0037F801C038F808012F512B2730512C23D2
:10174C00000E2D232E232F51315F3051325B336B22
:10175C00346B0001CD51000AD8A490D0CBC028F82E
:10176C00CCC029F80801276B000E006E0001DB517C
:10177C00005C03E1DA510801275DD8B074D0080190
:10178C00B7C03AF8B8C03BF82A6B266B3951265DC6
:10179C0066E22A51000A4AE1334B342B3651305D54
:1017AC0002E135512F5D38E23451305D02E13351A5
:1017BC002F5D32E2010E336F000E346FD8C0E1FFA3
:1017CC00D9C0E2FF2BC8E6FF2CC8E6FF2DC8E6FF08
:1017DC002EC8E6FF31C8E6FF32C8E6FF2F0EE66ED4
:1017EC00080EE66ED6C000F0D7C001F02AEC00F06F
:1017FC0000C037F801C038F831C835F832C836F8AF
:10180C0008012F512B2730512C23000E2D232E2372
:10181C002F51315F3051325B37C8E9FF38C8EAFFCE
:10182C00EECF3CF8374B382B010E2A6F2A513C1562
:10183C00006E0EE03AC854FA3BC855FA28C856FA5E
:10184C0029C857FA61C058FA62C059FA07EC03F07C
:10185C0008013A4B3B2B2A372A91262B97D7284B3A
:10186C00292B272B81D70801010E3A250001B76FD0
:10187C00000E08013B210001B86F91D0B7C028F8C9
:10188C00B8C029F80801276B000E006E0001DB516F
:10189C00005C03E1DA510801275DD8B076D008016D
:1018AC00CBC03AF8CCC03BF82A6B266B3951265D7D
:1018BC0068E22A51000A4AE1334B342B3651305D31
:1018CC0002E135512F5D38E23451305D02E1335184
:1018DC002F5D32E2010E336F000E346FD8C0E1FF82
:1018EC00D9C0E2FF2BC8E6FF2CC8E6FF2DC8E6FFE7
:1018FC002EC8E6FF31C8E6FF32C8E6FF2F0EE66EB3
:10190C00080EE66ED6C000F0D7C001F02AEC00F04D
:10191C0000C037F801C038F831C835F832C836F88D
:10192C0008012F512B2730512C23000E2D232E2351
:10193C002F51315F3051325B37C8E9FF38C8EAFFAD
:10194C00EECF3CF8374B382B010E2A6F2A513C1541
:10195C00006E0EE028C854FA29C855FA3AC856FA4F
:10196C003BC857FA61C058FA62C059FA07EC03F049
:10197C00010E08013A5F000E3B5B2A372A91262B99
:10198C0095D7284B292B272B7FD70801010E3A5DC1
:10199C000001CB6F000E08013B590001CC6F120007
:1019AC008A8A9096080124B102D08C9401D08C8440
:1019BC00908624C801F00132019E01C024F8909653
:1019CC0001B002D08C9401D08C84908601C002F0BE
:1019DC000232029E02C024F88A9A909602B002D07B
:1019EC008C9401D08C84908602C001F00132019E4F
:1019FC0001C024F8909601B002D08C9401D08C8454
:101A0C00908601C002F00232029E02C024F8909629
:101A1C0002B002D08C9401D08C84908602C001F06C
:101A2C000132019E01C024F8909601B002D08C9432
:101A3C0001D08C84908601C002F00232029E02C05A
:101A4C0024F8909602B002D08C9401D08C849086AD
:101A5C0002C001F00132019E01C024F8909601B041
:101A6C0002D08C9401D08C840801908601C024F89B
:081A7C002433249F9096120010
:101A840008012E6B2F6B306B316B2550000A0EE171
:101A9400E20E0A01446F850E456F010E466F476BD7
:101AA400486B496B4AEC07F0010E256E0001D551D5
:101AB4000801255D04E10001D4510801245D01E21F
:101AC40038D125510001D35D04E1080124510001FE
:101AD400D25D01E22ED1D4510801245D016E0001D2
:101AE400D55108012559026E01C003F002C004F06B
:101AF400033603900436033603900436080E0001BF
:101B04008325006E000E8421016E000E8521026E75
:101B140003500024086E04500120096E000E0220B8
:101B24000A6E08C0F6FF09C0F7FF0AC0F8FF0900F3
:101B3400F5CF2EF8010E0824F66E000E0920F76E7C
:101B4400000E0A20F86E0900F5CF00F000C004F082
:101B5400000E056E066E076E020E0824F66E000E69
:101B64000920F76E000E0A20F86E0900F5CF03F085
:101B740003C001F0006A000E026E036E00500426DA
:101B8400015005220250062203500722030E0824A6
:101B9400F66E000E0920F76E000E0A20F86E09009A
:101BA400F5CF03F0006A016A0450002605500122B3
:101BB40006500222075003228351002408012B6F90
:101BC40000018451012008012C6F0001855102207D
:101BD40008012D6F0001CD51000A55E1CBC028F852
:101BE400CCC029F80801276B000E006E0001DB5100
:101BF400005C03E1DA510801275D3AE20801B7C04D
:101C04002FF8B8C030F82A6B266B2E51265D2CE2D3
:101C14002A51000A10E12BC8F6FF2CC8F7FF2DC883
:101C2400F8FF0900F5CF31F8010E2B27000E2C2305
:101C34002D23010E2A6F2A513115006E0EE02FC894
:101C440054FA30C855FA28C856FA29C857FA61C058
:101C540058FA62C059FA07EC03F008012F4B302BF5
:101C64002A372A91262BD1D7284B292B272BBCD7AF
:101C74000801010E2F250001B76F000E0801302165
:101C84000001B86F56D0B7C028F8B8C029F80801C9
:101C9400276B000E006E0001DB51005C03E1DA519A
:101CA4000801275D3CE20801CBC02FF8CCC030F816
:101CB4002A6B266B2E51265D2EE22A51000A10E172
:101CC4002BC8F6FF2CC8F7FF2DC8F8FF0900F5CF85
:101CD40031F8010E2B27000E2C232D23010E2A6F21
:101CE4002A513115006E0EE028C854FA29C855FA55
:101CF4002FC856FA30C857FA61C058FA62C059FA68
:101D040007EC03F0010E08012F5F000E305B2A3749
:101D14002A91262BCFD7284B292B272BBAD708015A
:101D2400010E2F5D0001CB6F000E08013059000138
:041D3400CC6F12005E
:101D380028C83EFA29C83FFA2AC840FA020E080104
:101D48002825006E000E2921016E000E2A21026E40
:101D580000C03EFA01C03FFA02C040FA00C0F6FFD8
:101D680001C0F7FF02C0F8FF0900F5CF30F8000EF8
:101D7800316F010E0024046E000E0120056E000E66
:101D88000220066E04C03EFA05C03FFA06C040FABB
:101D980004C0F6FF05C0F7FF06C0F8FF0900F5CF3D
:101DA80003F003C001F0006A0050302701503123CE
:101DB800010E0424006E000E0520016E000E0620A0
:101DC800026E00C03EFA01C03FFA02C040FA00C0ED
:101DD800F6FF01C0F7FF02C0F8FF0900F5CF2EF8A3
:101DE800000E2F6F010E0024046E000E0120056EF8
:101DF800000E0220066E04C03EFA05C03FFA06C077
:101E080040FA04C0F6FF05C0F7FF06C0F8FF090056
:101E1800F5CF03F003C001F0006A00502E270150EF
:101E28002F23010E04240A013E6F000E05203F6F88
:101E3800000E0620406F080124510001C95D080109
:101E4800366F25510001CA590801376F2651000124
:101E5800C75D0801386F27510001C8590801396F5B
:101E68000A013C6B3D6B010E3D5D02E1000E3C5DDD
:101E780054E23CCA00F03DCA01F000360090013639
:101E88003C0E0024E16E080E0120E26E3ECAF6FF09
:101E98003FCAF7FF40CAF8FF0900F5CF00F000C0BD
:101EA800E6FF000EE66E010E3E27000E3F2340239C
:101EB8003CCA00F03DCA01F00036009001363C0EE5
:101EC8000024046E080E0120056E3ECAF6FF3FCAC4
:101ED800F7FF40CAF8FF0900F5CF01F001C003F091
:101EE800026A04C0E9FF05C0EAFFEECF00F0EECFBA
:101EF80001F0025000260350012204C0E1FF05C092
:101F0800E2FF00C0E6FF01C0E6FF010E3E27000E1B
:101F18003F2340233C4B3D2BA6D78F960801346BBB
:101F2800356B3151355D02E13051345DD8B079D02F
:101F38003ECA41FA3FCA42FA40CA43FA3551395DAE
:101F480002E13451385D6AE30001C8510801275D98
:101F580004E10001C7510801265D60E23B6B2B518B
:101F68003B5D5CE241CA3EFA42CA3FFA43CA40FAC4
:101F780024C85CFA25C85DFA26C85EFA27C85FFA45
:101F8800E0EC00F00801326B336B2F51335D02E156
:101F98002E51325D3FE23ECAF6FF3FCAF7FF40CA04
:101FA800F8FF0900F5CF03F003C000F0000E016E42
:101FB8000036009001363C0E0024E96E080E012020
:101FC800EA6EEECF2CF8EECF2DF8010E0A013E276F
:101FD800000E3F23402308013351375D02E132519F
:101FE800365D15E33A6B2B513A5D11E2C5C0E1FF4E
:101FF800C6C0E2FF2CC8E6FF2DC8E6FFC3C000F04C
:10200800C4C001F02AEC00F008013A2BECD7324B9F
:10201800332BBBD7264B272B3B2BA1D7344B352B48
:0620280080D78F86120034
:10202E0028C85FF829C860F82AC861F8020E0801AE
:10203E002825006E000E2921016E000E2A21026E47
:10204E0000C05FF801C060F802C061F800C0F6FF82
:10205E0001C0F7FF02C0F8FF0900F5CF2EF8000E01
:10206E002F6F010E0024046E000E0120056E000E6F
:10207E000220066E04C05FF805C060F806C061F865
:10208E0004C0F6FF05C0F7FF06C0F8FF0900F5CF44
:10209E0003F003C001F0006A00502E2701502F23D9
:1020AE00010E0424006E000E0520016E000E0620A7
:1020BE00026E00C05FF801C060F802C061F800C097
:1020CE00F6FF01C0F7FF02C0F8FF0900F5CF2CF8AC
:1020DE00000E2D6F010E0024046E000E0120056E01
:1020EE00000E0220066E04C05FF805C060F806C040
:1020FE0061F804C0F6FF05C0F7FF06C0F8FF09003F
:10210E00F5CF03F003C001F0006A00502C270150F8
:10211E002D23010E04245F6F000E0520606F000E4C
:10212E000620616F24510001C95D0801366F2551EB
:10213E000001CA590801376F26510001C75D080119
:10214E00386F27510001C8590801396F5D6B5E6BFE
:10215E00000E5E5D02E1100E5D5D54E25DC800F0A2
:10216E005EC801F00036009001363D0E0024E16E8F
:10217E00080E0120E26E5FC8F6FF60C8F7FF61C867
:10218E00F8FF0900F5CF00F000C0E6FF000EE66E86
:10219E00010E5F27000E602361235DC800F05EC84C
:1021AE0001F00036009001363D0E0024046E080E3C
:1021BE000120056E5FC8F6FF60C8F7FF61C8F8FF23
:1021CE000900F5CF01F001C003F0026A04C0E9FF77
:1021DE0005C0EAFFEECF00F0EECF01F00250002670
:1021EE000350012204C0E1FF05C0E2FF00C0E6FF7C
:1021FE0001C0E6FF010E5F27000E602361235D4BD9
:10220E005E2BA6D78F96346B356B2F51355D02E161
:10221E002E51345DD8B09DD05FC862F860C863F8A7
:10222E0061C864F83551395D02E13451385DD8A08A
:10223E008DD00001C8510801275D04E10001C7518E
:10224E000801265DD8B082D03C6B2B513C5DD8B0D6
:10225E007DD062C85FF863C860F864C861F824C8AE
:10226E005CFA25C85DFA26C85EFA27C85FFAE0EC6C
:10227E0000F00801326B336B2D51335D02E12C51AE
:10228E00325D60E232A115D00F0E3A15036E03C017
:10229E0000F0000E016E0036009001363D0E002457
:1022AE00E96E080E0120EA6EEECF30F8EECF31F86F
:1022BE002BD05FC8F6FF60C8F7FF61C8F8FF0900B2
:1022CE00F5CF01F001C03AF8010E5F27000E602332
:1022DE00612301C003F00332039E0332039E0332D7
:1022EE00039E0332039E03C000F0000E016E003603
:1022FE00009001363D0E0024E96E080E0120EA6EB4
:10230E00EECF30F8EECF31F83351375D02E1325176
:10231E00365D15E33B6B2B513B5D11E2C5C0E1FF12
:10232E00C6C0E2FF30C8E6FF31C8E6FFC3C000F00A
:10233E00C4C001F02AEC00F008013B2BECD7324B65
:10234E00332B9AD7264B272B3C2B7FD7344B352B51
:06235E005CD78F8612001F
:1023640028C842F829C843F82AC844F8020E0801CC
:102374002825006E000E2921016E000E2A21026E0E
:1023840000C042F801C043F802C044F800C0F6FFA0
:1023940001C0F7FF02C0F8FF0900F5CF31F8000EC5
:1023A400326F010E0024046E000E0120056E000E33
:1023B4000220066E04C042F805C043F806C044F883
:1023C40004C0F6FF05C0F7FF06C0F8FF0900F5CF0B
:1023D40003F003C001F0006A00503127015032239A
:1023E400010E0424006E000E0520016E000E06206E
:1023F400026E00C042F801C043F802C044F800C0B5
:10240400F6FF01C0F7FF02C0F8FF0900F5CF2FF86F
:10241400000E306F010E0024046E000E0120056EC4
:10242400000E0220066E04C042F805C043F806C040
:1024340044F804C0F6FF05C0F7FF06C0F8FF090022
:10244400F5CF03F003C001F0006A00502F270150BC
:102454003023010E0424006E000E0520016E000ED0
:102464000620026E00C042F801C043F802C044F8DE
:1024740000C0F6FF01C0F7FF02C0F8FF0900F5CF66
:102484003DF8000E3E6F010E0024046E000E012084
:10249400056E000E0220066E04C042F805C043F823
:1024A40006C044F804C0F6FF05C0F7FF06C0F8FFF5
:1024B4000900F5CF03F003C001F0006A00503D2786
:1024C40001503E23010E0424006E000E0520016E0F
:1024D400000E0620026E00C042F801C043F802C09C
:1024E40044F800C0F6FF01C0F7FF02C0F8FF09007E
:1024F400F5CF3FF8000E406F010E0024046E000E6D
:102504000120056E000E0220066E04C042F805C0CC
:1025140043F806C044F804C0F6FF05C0F7FF06C040
:10252400F8FF0900F5CF03F003C001F0006A005082
:102534003F2701504023010E0424426F000E052062
:10254400436F000E0620446F24510001C95D080149
:10255400336F25510001CA590801346F2651000117
:10256400C75D0801356F27510001C8590801366F4E
:102574008F96396B3A6B32513A5D02E13151395DD4
:10258400D8B07CD042C845F843C846F844C847F898
:102594003A51365D02E13951355DD8A06CD0000165
:1025A400C8510801275D04E10001C7510801265DF7
:1025B40062E23C6B2B513C5D5EE245C842F846C882
:1025C40043F847C844F824C85CFA25C85DFA26C80D
:1025D4005EFA27C85FFAE0EC00F00801416B376B44
:1025E400386B3051385D02E12F51375D40E2415183
:1025F400000A10E142C8F6FF43C8F7FF44C8F8FFD9
:102604000900F5CF2EF8010E4227000E4323442380
:10261400800E416F2E514115006E05E03FC82CF825
:1026240040C82DF804D03DC82CF83EC82DF83851C8
:10263400345D02E13751335D15E33B6B2B513B5D58
:1026440011E2C5C0E1FFC6C0E2FF2CC8E6FF2DC8F9
:10265400E6FFC3C000F0C4C001F02AEC00F008019A
:102664003B2BECD74133419F374B382BBAD7264B02
:10267400272B3C2B9FD7394B3A2B7DD78F861200C3
:1026840024C8B7F025C8B8F026C8CBF027C8CCF0CA
:02269400120032
:1026960028C83CF829C83DF82AC83EF8020E0801A9
:1026A6002825006E000E2921016E000E2A21026ED9
:1026B60000C03CF801C03DF802C03EF800C0F6FF7D
:1026C60001C0F7FF02C0F8FF0900F5CF2EF8000E93
:1026D6002F6F010E0024046E000E0120056E000E01
:1026E6000220066E04C03CF805C03DF806C03EF860
:1026F60004C0F6FF05C0F7FF06C0F8FF0900F5CFD6
:1027060003F003C001F0006A00502E2701502F236A
:10271600010E0424006E000E0520016E000E062038
:10272600026E00C03CF801C03DF802C03EF800C091
:10273600F6FF01C0F7FF02C0F8FF0900F5CF2CF83D
:10274600000E2D6F010E0024046E000E0120056E92
:10275600000E0220066E04C03CF805C03DF806C017
:102766003EF804C0F6FF05C0F7FF06C0F8FF0900F3
:10277600F5CF03F003C001F0006A00502C2701508A
:102786002D23010E04243C6F000E05203D6F000E24
:1027960006203E6F24510001C95D0801386F25519E
:1027A6000001CA590801396F26510001C75D0801A9
:1027B6003A6F27510001C85908013B6F8F96326B5B
:1027C600336B2F51335D02E12E51325DD8B07ED08E
:1027D6003CC83FF83DC840F83EC841F833513B5D20
:1027E60002E132513A5DD8A06ED00001C85108010D
:1027F600275D04E10001C7510801265D64E2376BDD
:102806002B51375D60E23FC83CF840C83DF841C8EF
:102816003EF824C85CFA25C85DFA26C85EFA27C8C1
:102826005FFAE0EC00F00801306B316B2D51315D41
:1028360002E12C51305D43E23CC8F6FF3DC8F7FF8C
:102846003EC8F8FF0900F5CF34F8000E356F010ECB
:102856003C27000E3D233E233CC8F6FF3DC8F7FF4C
:102866003EC8F8FF0900F5CF03F003C001F0006A87
:102876000050342701503523010E3C27000E3D231E
:102886003E233151395D02E13051385D15E3366B37
:102896002B51365D11E2C5C0E1FFC6C0E2FF34C868
:1028A600E6FF35C8E6FFC3C000F0C4C001F02AEC5D
:1028B60000F00801362BECD7304B312BB7D7264B1F
:1028C600272B372B9DD7324B332B7BD78F86120086
:1028D6005CC03BF85DC03CF85EC03DF8010E5C6E26
:1028E60057C05DF058C05EF008012851245D336F73
:1028F60029512559346F334B342B28512425356FF4
:1029060029512521366F010E355F000E365B2851A1
:10291600265D376F29512759386F374B382B285189
:102926002625396F295127213A6F010E395F000E8E
:102936003A5B2B6B2C6B2D6B2E6B2F6B306B2451F4
:10294600265D316F25512759326F28C82DF829C8C1
:102956002EF828C800F029C801F00036009001368C
:1029660000C02BF801C02CF8005003082B6F01C0E3
:102976002CF8000E2C57010E2D25016E000E2E216F
:10298600026E800E3019006E800E0218005C02E1A5
:1029960001502F5DD8B004EF19F05952D8B4BFD208
:1029A6000001C251000AD8A45DD1C0C044FAC1C01A
:1029B60045FABEC046FABFC047FA08012D51262582
:1029C6000A01486F08012E5127210A01496F0801A3
:1029D60037510A01485F080138510A01495B08016D
:1029E6003751395D0A014A6F080138513A590A01CF
:1029F6004B6FA6EC06F000C044FA01C045FA010E82
:102A06000A01466FB0EC0AF008012F5124250A018D
:102A1600446F0801305125210A01456F08012F51E5
:102A2600245D0A01466F0801305125590A01476F96
:102A360008012D5126250A01486F08012E5127212C
:102A46000A01496F31EC08F0C0C044FAC1C045FA2A
:102A5600BEC046FABFC047FA08012D51265D0A01DD
:102A6600486F08012E5127590A01496F080137514D
:102A76000A01485F080138510A01495B08013751CC
:102A8600395D0A014A6F080138513A590A014B6FFC
:102A9600A6EC06F000C044FA01C045FA010E0A0190
:102AA600466FB0EC0AF008012F5124250A01446F45
:102AB6000801305125210A01456F08012F51245D77
:102AC6000A01466F0801305125590A01476F08016E
:102AD6002D51265D0A01486F08012E5127590A011A
:102AE600496F31EC08F0C0C044FAC1C045FABEC017
:102AF60046FABFC047FA08012F5126250A01486F3A
:102B06000801305127210A01496F080137510A018E
:102B1600485F080138510A01495B08013751395DA0
:102B26000A014A6F080138513A590A014B6FA6EC5F
:102B360006F000C044FA01C045FA010E0A01466FCC
:102B4600B0EC0AF008012D5126250A01446F080150
:102B56002E5127210A01456F080131510A01445FB0
:102B6600080132510A01455B08012D51265D0A0113
:102B7600466F08012E5127590A01476F0801315146
:102B86000A01465F080132510A01475B08012F51CD
:102B960026250A01486F0801305127210A01496F8D
:102BA60031EC08F0C0C044FAC1C045FABEC046FACE
:102BB600BFC047FA08012F51265D0A01486F080178
:102BC600305127590A01496F080137510A01485FF8
:102BD600080138510A01495B08013751395D0A017C
:102BE6004A6F080138513A590A014B6FA6EC06F0B4
:102BF60000C044FA01C045FA010E0A01466FB0EC66
:102C06000AF008012D5126250A01446F08012E51AC
:102C160027210A01456F080131510A01445F080165
:102C260032510A01455B08012D51265D0A01466FA6
:102C360008012E5127590A01476F080131510A012F
:102C4600465F080132510A01475B08012F51265D94
:102C56000A01486F0801305127590A01496F31ECC2
:102C660008F05CD1C0C044FAC1C045FABEC046FAFD
:102C7600BFC047FA08012F5124250A01486F0801F1
:102C8600305125210A01496F080133510A01485F75
:102C9600080134510A01495B08013351355D0A01C7
:102CA6004A6F0801345136590A014B6FA6EC06F0FB
:102CB60000C044FA01C045FA010E0A01466FB0ECA5
:102CC6000AF008012D5126250A01446F08012E51EC
:102CD60027210A01456F08012D51265D0A01466F1D
:102CE60008012E5127590A01476F08012F51242543
:102CF6000A01486F0801305125210A01496FF5EC98
:102D060008F0C0C044FAC1C045FABEC046FABFC00A
:102D160047FA08012F51245D0A01486F0801305116
:102D260025590A01496F080133510A01485F080114
:102D360034510A01495B08013351355D0A014A6F76
:102D46000801345136590A014B6FA6EC06F000C053
:102D560044FA01C045FA010E0A01466FB0EC0AF0CA
:102D660008012D5126250A01446F08012E512721FD
:102D76000A01456F08012D51265D0A01466F0801BB
:102D86002E5127590A01476F08012F51245D0A0168
:102D9600486F0801305125590A01496FF5EC08F0D2
:102DA600C0C044FAC1C045FABEC046FABFC047FA21
:102DB60008012D5126250A01486F08012E512721A9
:102DC6000A01496F080131510A01485F0801325171
:102DD6000A01495B080133510A01485F0801345171
:102DE6000A01495B08013351355D0A014A6F080142
:102DF600345136590A014B6FA6EC06F000C044FA6E
:102E060001C045FA010E0A01466FB0EC0AF008014E
:102E16002F5126250A01446F0801305127210A0146
:102E2600456F08012F51265D0A01466F0801305192
:102E360027590A01476F08012D5126250A01486FB7
:102E460008012E5127210A01496F080131510A0153
:102E5600485F080132510A01495BF5EC08F0C0C031
:102E660044FAC1C045FABEC046FABFC047FA0801D7
:102E76002D51265D0A01486F08012E5127590A0176
:102E8600496F080131510A01485F080132510A01B0
:102E9600495B080133510A01485F080134510A01B0
:102EA600495B08013351355D0A014A6F0801345107
:102EB60036590A014B6FA6EC06F000C044FA01C071
:102EC60045FA010E0A01466FB0EC0AF008012F51CF
:102ED60026250A01446F0801305127210A01456F52
:102EE60008012F51265D0A01466F08013051275906
:102EF6000A01476F08012D51265D0A01486F080136
:102F06002E5127590A01496F080131510A01485FBC
:102F1600080132510A01495BF5EC08F035D1080188
:102F26002A51000AD8A490D02D5126250A01446FB3
:102F360008012E5127210A01456F08012D51265DF2
:102F46000A01466F08012E5127590A01476F0801E9
:102F56002F5124250A01486F0801305125210A0105
:102F6600496FF5EC08F008012D5126250A01446F3A
:102F760008012E5127210A01456F08012D51265DB2
:102F86000A01466F08012E5127590A01476F0801A9
:102F96002F51245D0A01486F0801305125590A0155
:102FA600496FF5EC08F008012F5126250A01446FF8
:102FB6000801305127210A01456F08012F51265D6E
:102FC6000A01466F0801305127590A01476F080167
:102FD6002D5126250A01486F08012E5127210A0185
:102FE600496F080131510A01485F080132510A014F
:102FF600495BF5EC08F008012F5126250A01446FBC
:103006000801305127210A01456F08012F51265D1D
:103016000A01466F0801305127590A01476F080116
:103026002D51265D0A01486F08012E5127590A01C4
:10303600496F080131510A01485F080132510A01FE
:10304600495BF5EC08F0A0D008012F5124250A01B0
:10305600446F0801305125210A01456F08012F519F
:10306600245D0A01466F0801305125590A01476F50
:1030760008012D5126250A01486F08012E512721E6
:103086000A01496F31EC08F008012F5124250A0185
:10309600446F0801305125210A01456F08012F515F
:1030A600245D0A01466F0801305125590A01476F10
:1030B60008012D51265D0A01486F08012E51275936
:1030C6000A01496F31EC08F008012D5126250A0145
:1030D600446F08012E5127210A01456F080131511D
:1030E6000A01445F080132510A01455B08012D516E
:1030F600265D0A01466F08012E5127590A01476FBE
:10310600080131510A01465F080132510A01475B45
:1031160008012F5126250A01486F08013051272141
:103126000A01496F31EC08F008012D5126250A01E4
:10313600446F08012E5127210A01456F08013151BC
:103146000A01445F080132510A01455B08012D510D
:10315600265D0A01466F08012E5127590A01476F5D
:10316600080131510A01465F080132510A01475BE5
:1031760008012F51265D0A01486F08013051275971
:103186000A01496F31EC08F0800E08012C19006E17
:10319600800E005C02E1000E2B5D13E22FC800F0EA
:1031A60030C801F000360090013600360090013636
:1031B600060E0026000E012200502B2701502C235C
:1031C6001CD02D512F5D036E2E513059046E03C055
:1031D60000F004C001F00036009001360036009081
:1031E60001360A0E0026000E012200502B27015040
:1031F6002C23010E2D5F000E2E5B2F4B302BBEEFC6
:1032060014F03BC85CF03CC85DF03DC85EF01200AF
:103216000801256B266B246B05015B51000AD8A4B7
:1032260019D2560E5625E96E030E5721EA6EEE5058
:10323600000A04E1010E5B6F006A0ED2560E562597
:10324600E96E030E5721EA6EEE50E50AD8B4DED1D8
:103256000B0E5625006E000E5721016E560E0024E9
:10326600E96E030E0120EA6EEE500F0AD8A4B4D020
:10327600560E5625E96E030E5721EA6E400EEE14E1
:10328600016E0150000803E2010E0801246F0801D7
:103296002E6B2F6B2A6B2B6B800E2B19006E800EFC
:1032A600000A005C02E10D0E2A5D21E24A0E2A2583
:1032B600D96E000E2B21DA6EDE5005015625006E02
:1032C600000E5721016E560E0024E96E030E0120F2
:1032D600EA6EEECF01F001C029F80150000A01E1C3
:1032E60006D008012E4B2F2B2A4B2B2BD5D70801A6
:1032F600010E255D2A6F000E26592B6F800E2B19A5
:10330600006E800E005C02E1000E2A5D19E32E516C
:103316002A25006E2F512B21016E660E0024E16EC8
:10332600050E0120E26E660E2A25E96E050E2B219A
:10333600EA6EEECFE6FF010E2A5F000E2B5BDED7AC
:103346002E5125272F5126232C6B2D6B2A6B2B6B89
:10335600800E2B19006E800E000A005C02E10D0E35
:103366002A5D29E24A0E2A25D96E000E2B21DA6E35
:10337600DE5005015625006E000E5721016E560ED1
:103386000024E96E030E0120EA6EEECF01F001C0C3
:1033960029F80150000A01E10ED0660E08012C251D
:1033A600E16E050E2D21E26E29C8E6FF2C4B2D2B72
:1033B6002A4B2B2BCDD7560E05015625E96E030E4B
:1033C6005721EA6EBF0EEE14016E0150010A03E1A9
:1033D600010E0601666F1AD125C82AF826C82BF8F1
:1033E600800E08012B19006E800E010A005C02E1B6
:1033F600000E2A5D0AE2660E2A25E16E050E2B21D5
:10340600E26EE66A2A4B2B2BEBD72451000A02E127
:103416000601666B0801276B286B2A6B2B6B800EE7
:103426002B19006E800E005C02E1080E2A5D31E267
:103436002A5105015625006E08012B510501572119
:10344600016E560E0024E96E030E0120EA6EEE5060
:10345600200A1BE0670E08012725E16E060E2821CB
:10346600E26E2A5105015625006E08012B51050111
:103476005721016E560E0024E96E030E0120EA6EF6
:10348600EECFE6FF0801274B282B08012A4B2B2BF2
:10349600C6D7080E05015625006E000E5721016E8F
:1034A600560E0024E96E030E0120EA6EEE50200A45
:1034B6000BE0670E08012725E16E060E2821E26E55
:1034C6002E0EE66E274B282B08012A6B2B6B800EDF
:1034D6002B19006E800E005C02E1030E2A5D39E2B4
:1034E6002A5105015625006E08012B510501572169
:1034F600016E080E0026000E0122560E0024E96E0B
:10350600030E0120EA6EEE50200A1FE0670E080146
:103516002725E16E060E2821E26E2A510501562561
:10352600006E08012B5105015721016E080E002679
:10353600000E0122560E0024E96E030E0120EA6EEB
:10354600EECFE6FF0801274B282B08012A4B2B2B31
:10355600BED7670E2725E16E060E2821E26EE66AC3
:103566001C0E05015625006E000E5721016E560EE3
:103576000024E96E030E0120EA6EEECF75F6EECF5B
:1035860076F6EECF77F6EECF78F60B0E5625006E72
:10359600000E5721016E560E0024E96E030E01201F
:1035A600EA6EEECF74F61A0E5625006E000E5721FF
:1035B600016E560E0024E96E030E0120EA6EEECF70
:1035C60079F6EECF7AF608012451000A1CE12A6B3F
:1035D6002B6B800E2B19006E800E005C02E10D0E27
:1035E6002A5D11E2660E2A25E16E050E2B21E26E9A
:1035F600670E2A25E96E060E2B21EA6EEECFE6FF50
:103606002A4B2B2BE6D7010E006E26D0560E05014F
:103616005625E96E030E5721EA6EEE50E50A10E0D4
:103626000B0E5625006E000E5721016E560E002415
:10363600E96E030E0120EA6EEE500F0A01E009D092
:1036460006017B4B7C2B7BC644FA7CC645FAABEC69
:0A36560009F0E2D5010E006E12002B
:0C36600092809282959E8C9E95881200AC
:0E366C0095889282959E8C9E92908980120085
:10367A0021C3E1FF22C3E2FF24C8E6FF1FC300F013
:0A368A0020C301F02AEC00F012004A
:103694000801256B266B270E265D02E1100E255DC1
:1036A400D8B0AED0000E000A02E1000E241919E1D0
:1036B4005EEC00F0010E0A016A6F6B6B6C6B6D6B54
:1036C4006E6BFF0E6F6F60EC00F000C027F8D3EC58
:1036D40000F008012751000A03E1246A006A92D02D
:1036E4008CD05EEC00F0370E0A016A6F6B6B6C6B6A
:1036F4006D6B6E6BFF0E6F6F60EC00F000C027F80F
:10370400D3EC00F008012751010AD8A475D05EEC6F
:1037140000F0290E0A016A6F000E6B6F000E6C6FC9
:10372400000E6D6F400E6E6FFF0E6F6F60EC00F059
:1037340000C027F8D3EC00F008012751000A5BE130
:10374400000E000A02E1020E241951E15EEC00F0C1
:103754003A0E0A016A6F6B6B6C6B6D6B6E6BFF0ECE
:103764006F6F60EC00F000C027F829C3E1FF2AC3A3
:10377400E2FFFF0EE66E27C300F028C301F02AEC37
:1037840000F000C028F829C3E1FF2AC3E2FFFF0EBE
:10379400E66E27C300F028C301F02AEC00F029C329
:1037A400E1FF2AC3E2FFFF0EE66E27C300F028C341
:1037B40001F02AEC00F029C3E1FF2AC3E2FFFF0E67
:1037C400E66E27C300F028C301F02AEC00F0D3EC26
:1037D40000F008012751000A09E128AD03D0040EC6
:1037E400246E02D0030E246E006A0CD004D0010EA5
:1037F400246E006A07D001D003D0254B262B4BD76B
:06380400010E006E12002F
:10380A00D8EC07F0D8EC07F0D8EC07F0D8EC07F0C2
:0A381A00D8EC07F0D8EC07F012001C
:0E382400958E928095988C98929289821200CF
:10383200086A080E0C6E003408360450085ED8B0D0
:0E38420002D00826D89000360C2EF5D71200C2
:1038500087BE01D0FDD70801096B200E095D0CE27F
:1038600009510725E96E000E0821EA6EEECF24F813
:0A387000D6EC0CF0092BF1D7120082
:10387A008A98030E0A01736F36EC00F007C873FAD0
:10388A0036EC00F008C800F008010807005228E0EA
:10389A000A01746B1CEC00F000C00BF8000E080162
:1038AA000C6F0BC80CF80B6B0A01746B1CEC00F064
:1038BA00000E016E08010B5100260C51012200C0B6
:1038CA000BF801C00CF809C8E1FF0AC8E2FF00C002
:1038DA00E6FF01C0E6FF020E0927000E0A23D2D72F
:0A38EA008A8887BE01D0FDD71200C6
:1038F4008A98020E0A01736F36EC00F007C873FA57
:1039040036EC00F009C873FA36EC00F008C873FA14
:0E39140036EC00F08A8887BE01D0FDD7120085
:0C39220080DF72DF16C324F8A7DE12005D
:10392E000001CA5108010A5D04E10001C9510801F4
:10393E00095D01E348D00001C85108010C5D04E1A6
:10394E000001C75108010B5D01E33DD00D6B0E6BFD
:10395E0009C824F80AC825F80BC826F80CC827F899
:10396E0042EC13F00D510725E96E0E510821EA6E57
:10397E00EE5229E00001B95313E008010D5107255D
:10398E00E96E0E510821EA6EEECF24F8000E256F77
:10399E00000E256FBEEC0AF008010D4B0E2B12D057
:1039AE0008010D510725E96E0E510821EA6EEECF82
:1039BE0024F8000E256F000E256F42EC0DF0080165
:0839CE000D4B0E2BCFD71200A8
:1039D60007C802F008C803F002C000F003C001F0F7
:1039E600024A032A00C0E9FF01C0EAFFEE5201E0E5
:1039F600F3D708010751025C006E08510358016EA7
:0A3A0600010E005E000E015A1200CE
:103A1000026A036A800E0318006E800E005C02E1E9
:103A20000C0E025C0CE2670E0224E96E060E032007
:103A3000EA6EEE50000A03E0024A032AEBD7800E3A
:103A40000318006E800E005C02E1040E025C02E2CC
:103A5000006A70D0040E025C006E000E0358016E06
:103A6000670E0024E96E060E0120EA6EEE502E0A63
:103A700060E1030E025C006E000E0358016E670EDB
:103A80000024E96E060E0120EA6EEE506D0A10E089
:103A9000030E025C006E000E0358016E670E0024D8
:103AA000E96E060E0120EA6EEE504D0A01E041D0AB
:103AB000020E025C006E000E0358016E670E0024B9
:103AC000E96E060E0120EA6EEE50700A10E0020E5A
:103AD000025C006E000E0358016E670E0024E96E52
:103AE000060E0120EA6EEE50500A01E022D0010ECF
:103AF000025C006E000E0358016E670E0024E96E32
:103B0000060E0120EA6EEE50330A10E0010E025C50
:103B1000006E000E0358016E670E0024E96E060E5B
:103B20000120EA6EEE50330A01E003D0010E006E70
:063B300001D0006A120042
:103B36005A5211E007C824F808C825F809C826F81B
:103B46000AC827F80BC828F80CC829F8010E08017E
:103B56002A6F6BEC14F057C015F858C016F859C008
:103B660017F85DC057F05EC058F0596A0BC801F0EF
:103B76000CC802F0013601900236800E0218006E63
:103B8600800E005C02E15C50015C19E2080107C886
:103B960024F808C825F809C826F80AC827F85C508A
:103BA6000B25286F000E0C21296F29332833299FF6
:103BB60029BD298F010E2A6F6BEC14F035D208014E
:103BC6000D6B0E6B0F6B106B116B126B0751095D52
:103BD600136F08510A59146F0BC80FF80CC810F868
:103BE6000BC800F00CC801F000360090013600C08A
:103BF6000DF801C00EF8005003080D6F01C00EF855
:103C0600000E0E57010E0F25016E000E1021026EDA
:103C1600800E1219006E800E0218005C02E101503F
:103C2600115DD8B001D25C50010AD8A4F0D0115170
:103C360007250A01546F0801125108210A01556F20
:103C460008010F5109250A01566F080110510A2172
:103C56000A01576F5DC058FA5EC059FA07EC03F0C7
:103C66000801115107250A01546F08011251082154
:103C76000A01556F08010F51095D0A01566F0801C7
:103C860010510A590A01576F5DC058FA5EC059FAB9
:103C960007EC03F008011151075D0A01546F080192
:103CA600125108590A01556F08010F5109250A01D9
:103CB600566F080110510A210A01576F5DC058FA64
:103CC6005EC059FA07EC03F008011151075D0A01BD
:103CD600546F0801125108590A01556F08010F5116
:103CE600095D0A01566F080110510A590A01576FFA
:103CF6005DC058FA5EC059FA07EC03F008010F518F
:103D060009250A01546F080110510A210A01556F4D
:103D1600080113510A01545F080114510A01555B49
:103D26000801115109250A01566F080112510A218D
:103D36000A01576F5DC058FA5EC059FA07EC03F0E6
:103D460008010F5109250A01546F080110510A2173
:103D56000A01556F080113510A01545F08011451F5
:103D66000A01555B08011151095D0A01566F0801E8
:103D760012510A590A01576F5DC058FA5EC059FAC6
:103D860007EC03F008010F51095D0A01546F0801A1
:103D960010510A590A01556F080113510A01545F5F
:103DA600080114510A01555B0801115109250A0140
:103DB600566F080112510A210A01576F5DC058FA61
:103DC6005EC059FA07EC03F008010F51095D0A01BC
:103DD600546F080110510A590A01556F0801135111
:103DE6000A01545F080114510A01555B080111517B
:103DF600095D0A01566F080112510A590A01576FE7
:103E06005DC058FA5EC059FA07EC03F0D1D008013C
:103E160011510725246F12510821256F0F510925CD
:103E2600266F10510A21276F5CC028F8000E296FF3
:103E36002833289F000E296F010E2A6F6BEC14F0B1
:103E460011510725246F12510821256F0F51095D65
:103E5600266F10510A59276F5CC028F8000E296F8B
:103E66002833289F000E296F010E2A6F6BEC14F081
:103E76001151075D246F12510859256F0F510925FD
:103E8600266F10510A21276F5CC028F8000E296F93
:103E96002833289F000E296F010E2A6F6BEC14F051
:103EA6001151075D246F12510859256F0F51095D95
:103EB600266F10510A59276F5CC028F8000E296F2B
:103EC6002833289F000E296F010E2A6F6BEC14F021
:103ED6000F510925246F10510A21256F1351245FB4
:103EE6001451255B11510925266F12510A21276F9E
:103EF6005CC028F8000E296F2833289F000E296F12
:103F0600010E2A6F6BEC14F00F510925246F105126
:103F16000A21256F1351245F1451255B1151095D48
:103F2600266F12510A59276F5CC028F8000E296FB8
:103F36002833289F000E296F010E2A6F6BEC14F0B0
:103F46000F51095D246F10510A59256F1351245FD3
:103F56001451255B11510925266F12510A21276F2D
:103F66005CC028F8000E296F2833289F000E296FA1
:103F7600010E2A6F6BEC14F00F51095D246F10517E
:103F86000A59256F1351245F1451255B1151095DA0
:103F9600266F12510A59276F5CC028F8000E296F48
:103FA6002833289F000E296F010E2A6F6BEC14F040
:103FB6000801800E0E19006E800E005C02E1000EF4
:103FC6000D5D13E211C800F012C801F00036009032
:103FD6000136003600900136060E0026000E01223C
:103FE60000500D2701500E231CD00F51115D036E9A
:103FF60010511259046E03C000F004C001F00036DF
:10400600009001360036009001360A0E0026000E9A
:10401600012200500D2701500E23010E0F5F000EE6
:10402600105B114B122BEED515C857F016C858F079
:0640360017C859F012004A
:10403C005CC000F00032009E00500801075D016E6C
:10404C00000E0859026E01C016F802C017F8800E57
:10405C000218006E800E005C02E1000E015C03E2AF
:10406C00166B176B14D00001CA510801175D04E1DF
:10407C000001C9510801165D0AE3010E0001C95D7A
:10408C000801166F000E0001CA590801176F5C0475
:10409C00036E046A000E045A03C000F004C001F061
:1040AC0001320032019E01BC018E00500B25026EC4
:1040BC0001500C21036E02C018F803C019F8800ED1
:1040CC000318006E800E005C02E1000E025C03E23D
:1040DC00186B196B14D00001CA510801195D04E169
:1040EC000001C9510801185D0AE3010E0001C95D08
:1040FC000801186F000E0001CA590801196F16C883
:10410C0044FA17C845FA18C846FA19C847FA09C834
:10411C0048FA0AC849FA31EC08F016C844FA17C82C
:10412C0045FA18C846FA19C847FA0DC848FA0EC815
:10413C0049FA31EC08F009C844FA0AC845FA0DC826
:10414C0046FA0EC847FA07C848FA08C849FAF5EC07
:10415C0008F009C844FA0AC845FA0DC846FA0EC850
:10416C0047FA0BC848FA0CC849FAF5EC08F05A5251
:10417C00D8B4F0D05DC013F85EC014F85CC015F86C
:10418C005C50010F036E046A000E042203C000F0A1
:10419C0004C001F001320032019E01BC018E0050BE
:1041AC0008010727015008230050092701500A2352
:1041BC00020E5C24036E046A000E042203C000F09D
:1041CC0004C001F001320032019E01BC018E00508E
:1041DC000B5F01500C5B00500D5F01500E5B595290
:1041EC00D8B48CD00001C251000A44E109C811F8BE
:1041FC000AC812F8080112510E5D02E111510D5D51
:10420C0038E3C0C044FAC1C045FABEC046FABFC0CC
:10421C0047FA0951115D0A01486F08010A511259F8
:10422C000A01496F080109510D5D0A014A6F080125
:10423C000A510E590A014B6FA6EC06F000C044FA65
:10424C0001C045FA010E0A01466FB0EC0AF007C82E
:10425C0044FA08C845FA0BC846FA0CC847FA11C804
:10426C0048FA12C849FA31EC08F00801114B122B2C
:10427C00C1D743D007C80FF808C810F8080110516F
:10428C000C5D02E10F510B5D38E3C0C044FAC1C0B4
:10429C0045FABEC046FABFC047FA07510F5D0A0186
:1042AC00486F0801085110590A01496F080107515C
:1042BC000B5D0A014A6F080108510C590A014B6F3A
:1042CC00A6EC06F000C044FA01C045FA010E0A0142
:1042DC00466FB0EC0AF009C844FA0AC845FA0DC892
:1042EC0046FA0EC847FA0FC848FA10C849FAF5EC56
:1042FC0008F008010F4B102BC1D726D057C044FA39
:10430C0058C045FA010E0A01466FB0EC0AF009C814
:10431C0011F80AC812F8080112510E5D02E1115190
:10432C000D5D12E307C844FA08C845FA0BC846FAF3
:10433C000CC847FA11C848FA12C849FA31EC08F00F
:10434C000801114B122BE7D713C85DF014C85EF0AF
:06435C0015C85CF0120020
:1043620006017D51000A02E1006A1BD005015B6B68
:1043720006017B6B7C6BFF0E05015E6FFF0E5F6FAC
:10438200606F616F0A01446B456BABEC09F0005042
:10439200000A05E1010E05015B6F006A02D00BEC19
:0443A20019F01200FC
:1043A60007C8E9FF08C8EAFFEE5213E007C8E9FFAD
:1043B60008C8EAFFEECF01F009C8D9FF0AC8DAFF3C
:1043C6000150DE1806E10801074B082B094B0A2BA2
:1043D600E7D707C8E9FF08C8EAFFEECF01F009C82A
:1043E600E9FF0AC8EAFFEECF00F00050015C006E5C
:0843F600016A000E015A1200D9
:1043FE008F96BCC0E1FFBDC0E2FF07C8E6FFBAC0A2
:10440E0000F0BBC001F02AEC00F0B5C0E1FFB6C071
:10441E00E2FF08C8E6FFB3C000F0B4C001F02AEC1A
:06442E0000F08F86120071
:10443400070E0B6E170E0C6E6A0E0D6E0D2EFED748
:0C4444000C2EFCD70B2EFAD70000120043
:104450000BC824F80CC825F80DC826F80EC827F894
:1044600042EC13F0080108510C1902E10B51071935
:104470000FE109C844FA0AC845FA0DC846FA0EC841
:1044800047FA07C848FA08C849FAF5EC08F09AD183
:1044900008010A510E1902E10D5109190FE107C86F
:1044A00044FA08C845FA0BC846FA0CC847FA09C8C6
:1044B00048FA0AC849FA31EC08F084D10801196BAE
:1044C0001A6B07510B5D016E08510C59026E01C049
:1044D0000FF802C010F8800E0218006E800E005C0B
:1044E00002E1000E015C0BE20F5100080F6F10514A
:1044F000000E1057010E195F000E1A5B02D0194B07
:104500001A2B1B6B1C6B09510D5D016E0A510E5964
:10451000026E01C011F802C012F8800E0218006E7F
:10452000800E005C02E1000E015C0BE211510008FC
:10453000116F1251000E1257010E1B5F000E1C5B13
:1045400002D01B4B1C2B1D6B1E6B800E1019006EB6
:10455000800E1219005C02E111510F5D66E21D4BE5
:104560001E2B0FC81FF810C820F811C80FF812C86A
:1045700010F81FC811F820C812F807C81FF808C89B
:1045800020F809C807F80AC808F81FC809F820C8A1
:104590000AF819C81FF81AC820F81BC819F81CC84F
:1045A0001AF81FC81BF820C81CF8010E216F2151F2
:1045B0005C5C3AE321C822F8000E236F010E22153D
:1045C000016E23C802F0000E0216000E021802E16E
:1045D000000E011806E122510008226F2351000E3F
:1045E000235722C800F023C801F001320032019E97
:1045F00001BC018E00C022F801C023F8005009253B
:104600000A01546F015008010A210A01556F07C8B9
:1046100056FA08C857FA5DC058FA5EC059FA07EC56
:1046200003F00801212BC3D73FD0010E216F215188
:104630005C5C3AE321C822F8000E236F010E2215BC
:10464000016E23C802F0000E0216000E021802E1ED
:10465000000E011806E122510008226F2351000EBE
:10466000235722C800F023C801F001320032019E16
:1046700001BC018E00C022F801C023F807C854FA1B
:1046800008C855FA005009250A01566F0150080163
:104690000A210A01576F5DC058FA5EC059FA07EC4B
:1046A00003F00801212BC3D70FC817F810C818F85A
:1046B00017371791183711C800F012C801F00036EB
:1046C0000090013600C015F801C016F80F51005CCB
:1046D000136F10510158146F010E0F5F000E105B25
:1046E000800E1019006E800E005C02E1000E0F5D5E
:1046F00069E3800E1419006E800E005C02E1000E6A
:10470000135D08E31B5109271C510A231751135F3E
:104710001851145B195107271A51082315511327F3
:1047200016511423010E216F21515C5C4AE321C80C
:1047300022F8000E236F010E2215016E23C802F02D
:10474000000E0216000E021802E1000E011806E12A
:1047500022510008226F2351000E235723332233A6
:10476000239F23BD238F1D511E1114E022510925C3
:104770000A01546F080123510A210A01556F07C825
:1047800056FA08C857FA5DC058FA5EC059FA07ECE5
:1047900003F014D007C854FA08C855FA080122518A
:1047A00009250A01566F080123510A210A01576F92
:1047B0005DC058FA5EC059FA07EC03F00801212BDE
:0647C000B3D78AD71200F6
:1047C6004E0E0C6EEB0E0D6E0D2EFED70C2EFCD77C
:0247D6001200CF
:1047D80007C85AF008C857F009C858F00AC859F06D
:1047E8000BC8C2F00CC8C0F00DC8C1F00EC8BEF0AE
:0647F8000FC8BFF0120023
:1047FE00100E0C6E940E0D6E0D2EFED70C2EFCD7D9
:04480E000000120094
:104812009C0E0C6ED70E0D6E0D2EFED70C2EFCD7F5
:02482200120082
:1048240030EC1BF005EC1CF05AC524F83DEC1BF0F1
:1048340005015951015C02E15851005C010ED8B0E8
:0A484400000E026E02C000F0120028
:10484E0007C804F008C805F008010B510C1124E04C
:10485E00010E0B5F000E0C5B04C002F005C003F0EE
:10486E00044A052A09C800F00AC801F0094B0A2BB0
:10487E0000C0E9FF01C0EAFF02C0E1FF03C0E2FF92
:10488E00EECFE6FF02C0E9FF03C0EAFFEECF00F075
:10489E00005201E101D0D8D70BC800F00CC801F0CE
:1048AE00010E0B5F000E0C5B0050011008E004C0FF
:1048BE00E1FF05C0E2FFE66A044A052AEDD707C804
:0848CE0000F008C801F012001F
:1048D60006017D51000A02E1006A19D005015B510B
:1048E600010A02E1006A13D006017B4B7C2B7BC6D2
:1048F60044FA7CC645FAABEC09F00050000A05E123
:10490600010E05015B6F006A02D00BEC19F0120074
:1049160087BE01D0FDD707C824F8D6EC0CF01200EC
:104926000001CA510801085D04E10001C9510801EE
:10493600075D01E370D00001C85108010A5D04E17A
:104946000001C7510801095D01E365D0010E0B2581
:10495600F66E000E0C21F76E000E0D21F86E0900A2
:10496600F5CF0FF84CD007C824F808C825F809C8B1
:1049760026F80AC827F80BC828F80CC829F80DC865
:104986002AF80EC82BF8B2EC11F045D007C824F867
:1049960008C825F809C826F80AC827F80BC828F851
:1049A6000CC829F80DC82AF80EC82BF817EC10F019
:1049B60032D007C824F808C825F809C826F80AC856
:1049C60027F80BC828F80CC829F80DC82AF80EC80D
:1049D6002BF89CEC0EF01FD007C824F808C825F861
:1049E60009C826F80AC827F80BC828F80CC829F8F9
:1049F6000DC82AF80EC82BF84BEC13F00CD00F514B
:104A0600010AB1E00F51040AC1E00F51080AD1E0D2
:084A16000F51100AE1E012004B
:104A1E00050E246E9590D3EC00F00801076B086B21
:104A2E00000E085D02E10A0E075D10E229C3E1FFE8
:104A3E002AC3E2FFFF0EE66E27C300F028C301F083
:104A4E002AEC00F00801074B082BEAD75EEC00F0C9
:104A5E000A016A6B6B6B6C6B6D6B6E6B950E6F6F89
:104A6E0060EC00F000C009F8D3EC00F00801095129
:104A7E00010A03E0010E006E81D05EEC00F0080E1C
:104A8E000A016A6FAA0E6B6F010E6C6F000E6D6FCE
:104A9E006E6F870E6F6F60EC00F000C009F829C3CF
:104AAE00E1FF2AC3E2FFFF0EE66E27C300F028C324
:104ABE0001F02AEC00F029C3E1FF2AC3E2FFFF0E4A
:104ACE00E66E27C300F028C301F02AEC00F029C3DC
:104ADE00E1FF2AC3E2FFFF0EE66E27C300F028C3F4
:104AEE0001F02AEC00F029C3E1FF2AC3E2FFFF0E1A
:104AFE00E66E27C300F028C301F02AEC00F0D3ECD9
:104B0E0000F008010951010A0AE0010E246F4AEC77
:104B1E001BF0005203E0246B4AEC1BF004D0020E93
:104B2E00246F4AEC1BF0000E000A02E1050E241859
:104B3E0003E1020E006E22D0000E000A02E1040E06
:104B4E0024181BE05EEC00F0100E0A016A6F000ED6
:104B5E006B6F020E6C6F000E6D6F6E6FFF0E6F6FD0
:104B6E0060EC00F000C009F8D3EC00F00801095128
:0E4B7E00000A03E0030E006E01D0006A120070
:104B8C00380E0301276F000E286F740E296F0A0E62
:104B9C002A6F6C0E236F000E246F730E256F0A0E96
:104BAC00266F949A08010751040A02E1948601D0F9
:104BBC0094969488C66A0751C6120951C6120851B8
:104BCC00C712095305E00A51000AD8B4C78C03D0A8
:0A4BDC000A53D8A4C78CC68A120041
:104BE60036EC1BF005EC1CF05AC524F83DEC1BF026
:024BF6001200AB
:104BF8000701E833E733E89FE953D8A4E88F030EA9
:104C08000801076FE7C708F8E8C709F87AEC1CF04D
:024C1800120088
:104C1A00E7C709F80801086B0701E85108010827E6
:0E4C2A00000E09230B0E076F7AEC1CF012002F
:104C3800000160516408006E016A000E015A580EA6
:104C480000240701E76F000E0120E86F000EE8BF9F
:104C5800FF0EE96FEA6F4E0E0A01546F570E556F3B
:104C68006C0E566F63EC06F000C008F801C009F836
:104C7800010E0801076F0A6B010E0B6F0C6B0D6BB1
:104C88000E6B0F6BA5DD4E0E0A01546F570E556F54
:104C98006C0E566F63EC06F000C044FA01C045FA8A
:104CA800010E0A01466FB0EC0AF0530E0801076FB7
:104CB800000E086F960E096F000E0A6FC10E0B6F7B
:104CC800000E0C6FA00E0D6F000E0E6F1EEC20F084
:104CD800180E0A01446FC60E456F010E466FB0EC00
:104CE8000AF0580E446F000E456FBC0E466F000E5A
:104CF800476F9A0E486F000E496F31EC08F0580E56
:104D0800446F000E456FBC0E466F000E476F9B0E3A
:104D1800486F000E496F31EC08F0580E446F000ED2
:104D2800456FBC0E466F000E476F9C0E486F000E15
:104D3800496F31EC08F0840E546FC50E556FFF0EA5
:104D4800566F63EC06F000C044FA01C045FA010E44
:104D58000A01466FB0EC0AF0580E446F000E456F1A
:104D6800E7C746FAE8C747FA9A0E486F000E496F38
:104D780031EC08F00F0E546F410E556FCD0E566F83
:104D880063EC06F000C044FA01C045FA010E0A01BE
:104D9800466FB0EC0AF0580E446F000E456FE7C737
:104DA80046FAE8C747FA9B0E486F000E496F31EC88
:104DB80008F06E0E546F960E556FFF0E566F63EC2B
:104DC80006F000C044FA01C045FA010E0A01466F18
:104DD800B0EC0AF0580E446F000E456FE7C746FA6C
:104DE800E8C747FA9C0E486F000E496F31EC08F08F
:104DF800560E546FD80E556FFF0E566F63EC06F0C3
:104E080000C0EBF701C0ECF77F0E0A01546F8A0E61
:104E1800556FD30E566F63EC06F000C00CF801C056
:104E28000DF8010E0801076F1F0E086F000E096FBD
:104E3800010E0A6F0B6BEBC70EF8ECC70FF8C8DC56
:104E48000A01446B456B010E466FB0EC0AF0E7C7E8
:104E580007F8E8C708F89B0E0801096F000E0A6FEB
:0E4E6800050E0B6F000E0C6F9BEC1DF0120080
:104E760006017D51000A02E1006A33D0B1EC21F04F
:104E860000C0E9F70701E951010A2AE1670E0801A6
:104E9600076F060E086FE7C709F8E8C70AF8D3ECEC
:104EA60021F0000E011802E1000E001815E179C686
:104EB6005CF57AC65DF5000E006E06017A51005C5F
:104EC60002E17951000805E2010E05015C5F000E62
:104ED6005D5B010E006E05D0FBDC00C0E9F7D2D7A2
:044EE600006A12004C
:104EEA000701E76BE86B800EE819006E800E030A73
:104EFA00005C02E1D40EE75D32E2020EE725F66EAF
:104F0A00960EE821F76E010EF86E000EE8BFFF0E4E
:104F1A00F8220900F5CF07F8E7C700F0E8C701F063
:104F2A00000EE8BFFF0E026E036E003600900136D7
:104F3A00023603365A0E0024F66E8E0E0120F76EE4
:104F4A00010E0220F86E0900F5CF08F80900F5CF26
:104F5A0009F87AEC1CF00701E74BE82BC4D7070ED7
:104F6A000801076F810E086F130E096F7AEC1CF0A7
:104F7A00060E0801076F086B096B7AEC1CF0120029
:104F8A0030EC1BF037DC5AC524F83DEC1BF0050168
:104F9A005951015C02E15851005C010ED8B0000E73
:084FAA00026E02C000F01200CB
:104FB200040E0801076F010E086FE7C709F8E8C77A
:084FC2000AF83DEC1CF012009E
:104FCA0012EC1CF017DC16C324F83DEC1BF000C0F1
:104FDA00E7F701C0E8F7E7C700F0E8C701F01200F9
:104FEA000301146B156BB1EC21F000C0E7F7070160
:104FFA00E751010A10E1670E0801076F060E086FF4
:10500A0008EC1DF0005203E00301144B152B5EDC83
:08501A0000C0E7F7ECD712001B
:1050220036EC1BF0FFEC23F05AC524F83DEC1BF0E4
:1050320000C0E7F701C0E8F7E7C700F0E8C701F0F2
:0250420012005A
:105044008C969596908C999C8F8698969992999423
:10505400908290849A6A1AEC22F08C861AEC22F0E0
:105064001AEC22F0EA0E0801076F086BFFEC21F03E
:10507400EB0E0801076F200E086FFFEC21F0EC0E19
:105084000801076F0C0E086FFFEC21F0ED0E08010C
:10509400076FC40E086FFFEC21F0E80E0801076FDC
:1050A400400E086FFFEC21F0E90E0801076F380E7F
:1050B400086FFFEC21F0F10E0801076F010E086F75
:1050C400FFEC21F0F20E0801076F100E086FFFECE1
:1050D40021F0270E0801076FA30E086FFFEC21F0E3
:1050E400400E0801076F086BFFEC21F0410E080128
:1050F400076F086BFFEC21F0420E0801076F010EE9
:10510400086FFFEC21F0430E0801076F130E086FC0
:10511400FFEC21F0440E0801076F100E086FFFEC3E
:1051240021F0450E0801076F260E086FFFEC21F0F1
:10513400460E0801076F080E086FFFEC21F0470EBA
:105144000801076F510E086FFFEC21F0480E0801AB
:10515400076F020E086FFFEC21F0490E0801076F7C
:10516400120E086FFFEC21F04A0E0801076F180EAB
:10517400086FFFEC21F04B0E0801076F190E086F42
:10518400FFEC21F04C0E0801076F140E086FFFECC2
:1051940021F0500E0801076F190E086FFFEC21F083
:1051A400510E0801076F2F0E086FFFEC21F0520E0D
:1051B4000801076F2C0E086FFFEC21F0530E080155
:1051C400076F3E0E086FFFEC21F0540E0801076FC5
:1051D4003F0E086FFFEC21F0550E0801076F3F0EDC
:1051E400086FFFEC21F0560E0801076F2E0E086FB2
:1051F400FFEC21F0570E0801076F770E086FFFECE4
:1052040021F0580E0801076F0B0E086FFFEC21F018
:10521400590E0801076F060E086FFFEC21F05A0EB5
:105224000801076F070E086FFFEC21F05B0E080101
:10523400076F0D0E086FFFEC21F05C0E0801076F7D
:105244001D0E086FFFEC21F05D0E0801076FCC0EF8
:10525400086FFFEC21F00001B2515A0A1CE1040E60
:105264000801076F086BFFEC21F0050E0801076FBA
:10527400EF0E086FFFEC21F0080E0801076F010E16
:10528400086FFFEC21F0090E0801076F3F0E086F4D
:10529400FFEC21F01BD0040E0801076F010E086F0C
:1052A400FFEC21F0050E0801076F3F0E086FFFECBD
:1052B40021F0080E0801076F086BFFEC21F0090EBE
:1052C4000801076FEF0E086FFFEC21F00001B251E7
:1052D4005A0A13E11750010A08E1160E0801076F74
:1052E400C80E086FFFEC21F007D0160E0801076FF7
:1052F400080E086FFFEC21F012D01750010A08E1E4
:10530400160E0801076FA80E086FFFEC21F007D0F6
:10531400160E0801076F680E086FFFEC21F01B0ED4
:105324000801076F1B0E086FFFEC21F01A0E08012D
:10533400076F010E086FFFEC21F0240E0801076FC0
:105344002F0E086FFFEC21F0250E0801076F570E92
:10535400086FFFEC21F0230E0801076F8D0E086F14
:10536400FFEC21F0180E0801076F360E086FFFECF2
:1053740021F0190E0801076F010E086FFFEC21F0F0
:10538400010E0801076F086BFFEC21F01F0E0801E6
:10539400076F880E086FFFEC21F0E3EC23F01F0E7B
:1053A4000801076F800E086FFFEC21F0E3EC23F097
:1053B4001F0E0801076F900E086FFFEC21F0E3EC5D
:1053C40023F01F0E0801076FD00E086FFFEC21F0C9
:1053D400E3EC23F0170E0801076F050E086FFFECCE
:1053E40021F0360E0801076F086BFFEC21F0280E40
:1053F4000801076F380E086FFFEC21F009EC24F068
:1054040009EC24F009EC24F009EC24F0280E08013E
:0C541400076F3C0E086FFFEC21F0120047
:1054200091EC1CF006017E51005C0701EB6F060158
:105430007F5101580701EC6F12EC24F00050000A74
:1054400003E1010E006E1AD2F3EC25F006018B5138
:10545000005C0701ED6F06018C5101580701EE6FEA
:10546000000E191802E1010E1818D8A4B2D00301D9
:105470001A51185D02E11951175D53E2EBC700F0B4
:10548000ECC701F0000E0701ECBFFF0E026E036EC9
:1054900019C304F01AC305F0000E066E076E3AEC4D
:1054A00006F006017E510201E85D046E06017F519F
:1054B0000201E959056E000E066E076E45EC05F017
:1054C00000C0EBF701C0ECF7EDC700F0EEC701F04C
:1054D000000E0701EEBFFF0E026E036E17C304F04D
:1054E00018C305F0000E066E076E3AEC06F00601D2
:1054F0008B510201E65D046E06018C510201E759F1
:10550000056E000E066E076E45EC05F000500301B7
:10551000175D0701ED6F0150030118590701EE6F88
:1055200057D0030118511A5D02E11751195D50E27D
:10553000EDC7EFF7EEC7F0F7EBC700F0ECC701F0EF
:10554000000E0701ECBFFF0E026E036E17C304F0DE
:1055500018C305F0000E066E076E3AEC06F0060161
:105560007E510201E85D046E06017F510201E95996
:10557000056E000E066E076E45EC05F000C0EDF7F7
:1055800001C0EEF7EFC700F0F0C701F0000E070111
:10559000F0BFFF0E026E036E19C304F01AC305F0CC
:1055A000000E066E076E3AEC06F006018B51020102
:1055B000E65D046E06018C510201E759056E000E8E
:1055C000066E076E45EC05F000C0EBF701C0ECF786
:1055D000CBD003011A51185D02E11951175D58E251
:1055E000EBC700F0ECC701F0000E0701ECBFFF0EA7
:1055F000026E036E19C304F01AC305F0000E066EA6
:10560000076E3AEC06F006017E510201E85D046E79
:1056100006017F510201E959056E000E066E076E04
:1056200045EC05F000C0EBF701C0ECF7EDC700F06A
:10563000EEC701F0000E0701EEBFFF0E026E036E13
:1056400017C304F018C305F0000E066E076E3AEC9F
:1056500006F006018B510201E65D046E06018C51D5
:105660000201E759056E000E066E076E45EC05F067
:1056700000C0EDF701C0EEF70701EB510301195D22
:105680000701EB6FEC5103011A590701EC6F6CD065
:10569000030118511A5D02E11751195D65E2EDC76A
:1056A000EFF7EEC7F0F7EBC700F0ECC701F0000E24
:1056B0000701ECBFFF0E026E036E17C304F018C3A0
:1056C00005F0000E066E076E3AEC06F006017E51FC
:1056D0000201E85D046E06017F510201E959056E81
:1056E000000E066E076E45EC05F000C0EDF701C038
:1056F000EEF7EFC700F0F0C701F0000E0701F0BFB2
:10570000FF0E026E036E19C304F01AC305F0000EFB
:10571000066E076E3AEC06F006018B510201E65D5B
:10572000046E06018C510201E759056E000E066EEB
:10573000076E45EC05F000C0EBF701C0ECF7070180
:10574000ED510301175D0701ED6FEE51030118598B
:105750000701EE6FEB510301195D0701EB6FEC518F
:1057600003011A590701EC6F0701800EEC19006E56
:10577000800E005C02E1000EEB5D0BE303011A51A9
:105780000701EC5D04E1030119510701EB5D01E242
:1057900003D0010E006E72D0800EEE19006E800EE6
:1057A000005C02E1000EED5D0BE3030118510701FF
:1057B000EE5D04E1030117510701ED5D01E203D045
:1057C000010E006E5BD003011D510701EB5D016E00
:1057D00003011E510701EC59026E01C0F1F702C02E
:1057E000F2F703011B510701ED5DF36F03011C513B
:1057F0000701EE59F46FEBC71DF3ECC71EF3EDC7BD
:105800001BF3EEC71CF3800E000A006E800E021818
:10581000005C02E1015005081DE3800E000A006EE5
:10582000800EF419005C02E1F351050813E3800EC9
:10583000F219006E7F0E005C02E1FB0EF15D0AE3DF
:10584000800EF419006E7F0E005C02E1FB0EF35D2A
:1058500001E303D0010E006E11D0E7C7E1FFE8C7F6
:10586000E2FFEBC7E6FFECC7E6FFE9C7E1FFEAC7E7
:0E587000E2FFEDC7E6FFEEC7E6FF006A12009A
:10587E00086A096A100E0C6E013408360936045097
:10588E00085E0550D8A0053C095ED8B007D004507C
:10589E0008260550D8B0053C0926D89000360136AA
:0658AE000C2EEAD71200E7
:1058B4000134083609360450085E0550D8A0053C6A
:1058C400095E003601360F0E0C6E013408360936B7
:1058D400045000A006D0085E0550D8A0053C095E1F
:1058E40005D008260550D8B0053C092600360136F7
:1058F4000C2EEBD700B006D0045008260550D8B0C3
:08590400053C09260000120019
:10590C00EA0E0801076F020E086FE7C709F8E8C72F
:10591C000AF8270E0B6F000E0C6F27EC24F0EA0E22
:10592C00076F020E086FEBEC1CF0800E026E800EFF
:10593C000118025C02E10050230808E22E0E03015C
:10594C000D6F2E0E0E6F2E0E0F6F106BEA0E0801E0
:10595C00076F020E086FE9C709F8EAC70AF8EBC728
:0C596C000BF8ECC70CF897EC1CF01200D4
:10597800E7C704F0E8C705F004C002F005C003F06B
:10598800044A052AE9C700F0EAC701F00701E94B14
:10599800EA2B00C0E9FF01C0EAFF02C0E1FF03C033
:1059A800E2FFEECFE6FF02C0E9FF03C0EAFFEE52D6
:0E59B80001E0E2D7E7C700F0E8C701F01200F7
:1059C6000701EA6B030EEA5D0AE2EA51E825E16E99
:1059D600000EE921E26E200EE66EEA2BF3D7EA51BD
:1059E600E825E16E000EE921E26EE66AEA07EA5171
:1059F600E825EB6F000EE921EC6F0A0E046EE7C78F
:105A060000F019EC1CF008C000F0300E0026EBC7C1
:105A1600E1FFECC7E2FF00C0E6FF0A0E046EE7C72F
:105A260000F019EC1CF000C0E7F70050000A01E195
:085A360002D0EA07DCD71200E0
